:020000040800F2
:10000000E84800200101000809010008B92B000898
:100010000D0100080F010008110100080000000098
:1000200000000000000000000000000013010008B4
:1000300015010008000000009D030008B1560008EB
:100040001B0100081B0100081B0100081B01000820
:100050001B0100081B0100081B0100081B01000810
:100060001B0100081B0100081B0100081B01000800
:100070001B0100081B0100081B0100081B010008F0
:100080001B0100081B0100081B0100081B010008E0
:100090001B0100081B0100081B0100081B010008D0
:1000A0001B010008315700081B0100081B01000854
:1000B0001B0100081B0100089D5700081B010008D8
:1000C0001B0100081B0100081B0100081B010008A0
:1000D0001B01000889590008B1590008F9590008A6
:1000E0001B0100081B0100081B010008DFF80CD0F1
:1000F00000F0CEF8004800471D6F0008E8480020D7
:100100000648804706480047FEE7FEE7FEE7FEE7B1
:10011000FEE7FEE7FEE7FEE7FEE7FEE7E156000842
:10012000ED00000872B6704762B67047EFF31080BA
:1001300072B6704780F31088704730BF704720BF99
:100140007047B0FA80F0704790FAA0F0B0FA80F0F3
:10015000704790FAA0F070472DE9F05F0546002047
:1001600092469B4688460646814640241BE0284628
:1001700041464746224600F07AF853465A46C01A8E
:10018000914110D311461846224600F061F82D1A0D
:1001900067EB01084F4622460120002100F058F885
:1001A00017EB00094E41201EA4F10104DFDC484694
:1001B00031462A464346BDE8F09F10B5431A9342A4
:1001C00009D28318881803E010F8011D03F8011DF7
:1001D000521EF9D210BD40EA01039B0703D009E08B
:1001E00008C9121F08C0042AFAD203E011F8013B23
:1001F00000F8013B521EF9D210BDD2B201E000F866
:10020000012B491EFBD270470022F6E710B51346BA
:100210000A4604461946FFF7F0FF204610BD30B5E8
:1002200005462A460B4612F8010B13F8014B08B19C
:10023000A042F8D01CB1002802D06D1CF1E728467E
:1002400030BD421C10F8011B0029FBD1801A7047F9
:10025000202A04DB203A00FA02F100207047914086
:10026000C2F1200320FA03F3194390407047202A7B
:1002700004DB203A21FA02F00021704721FA02F350
:10028000D040C2F120029140084319467047000057
:10029000064C074D06E0E06840F0010394E80700D3
:1002A00098471034AC42F6D3FFF724FFA07E000835
:1002B000C07E000870B58C1810F8015B15F00703BC
:1002C00001D110F8013B2A1106D110F8012B03E0EF
:1002D00010F8016B01F8016B5B1EF9D12B0705D4F7
:1002E0000023521E0DD401F8013BFAE710F8013B40
:1002F000CB1A921C03E013F8015B01F8015B521E5C
:10030000F9D5A142D8D3002070BD000072B64EF6D8
:100310002250CEF2000040F2FF01C0F20001017055
:100320004FF0000080F3098803F050FD40F24020B8
:10033000C2F20000016881F3088840F2CA10C2F2DC
:10034000000040F2CB11C2F200010A78027040F2C4
:100350003825C2F2000540F23C21C2F200010A68D1
:100360002A60106880F30988EFF3148040F00200DF
:1003700080F31488BFF36F8FBDE8F00F0FBCBDE8AA
:10038000005006BC62B6084718484FF08051016023
:10039000704716484FF080510160704772B6EFF316
:1003A000098020E9F00F40F23825C2F200052E68DE
:1003B0003060744603F00AFD40F2CA10C2F2000039
:1003C00040F2CB11C2F200010A78027040F23C21E7
:1003D000C2F200010A682A6044F0F40E1068B0E826
:1003E000F00F80F3098862B67047000004ED00E06A
:1003F0000EB5144C144DDFF85480002602AF207C5B
:10040000012815D1607C012812D12674286840F09B
:100410004000286098F800004FF47A71401C48436F
:1004200000F082FA286820F04000286004F050FFB5
:1004300000220A2311461046CDE9006703F030FD83
:10044000DDE70000D62500200C0C01400300002051
:100450000EB5184D184F00260DF1080868897988E7
:1004600088421DD1154C6E747E80206820F080007B
:100470002060206820F020002060A8894FF47A7165
:10048000401C484300F050FA04F022FF206840F07E
:1004900080002060206840F0200020600120687407
:1004A0000022CDE900680A231146104603F0F8FC4B
:1004B000D4E70000D6250020080000200C0C0140E5
:1004C0000EB500240DF1080502F0B4FD00220A2348
:1004D00011461046CDE9004503F0E2FCF4E70000C8
:1004E0008AB000F04DF900F061FA09A803F036FA7D
:1004F00000F0A8FA002403263148CDE9064609ADEC
:1005000008950594D0F8CC100DF1040C4FF4007749
:10051000009604948CE8830023462A4A2AA1A0F579
:10052000246003F07DFA2D48CDE906460895059430
:10053000D0F8CC1001AA049482E883000420009033
:100540000023274A27A12C4803F06AFA2B48CDE95B
:10055000064608950594D0F8CC1001AA049482E8C8
:1005600083000520009024480023254A25A1C0309F
:1005700003F056FA27A005F0C9FB4FF4FA610520F5
:1005800002F02AFB2B4EDFF8B08040F6B837F08936
:10059000A0EB001007EB400081B2404605F08CF95B
:1005A00002F012FD06F034FA02F032FB00220A23B8
:1005B00011461046CDE9004503F072FCE7E7000064
:1005C000480D0020C1040008417070205461736B15
:1005D000205061727365205443420000481500208A
:1005E00051040008417070205461736B204C4544E5
:1005F0002054434200000000C8030020481D002092
:10060000F1030008417070205461736B2031205455
:10061000434200005761697420746865206D6F64FF
:10062000756C6520706F776572206F6E2E2E2E0DA3
:100630000A000000D625002000040040704700009A
:1006400010B5FFF773FD044600F01AFA0E490D4885
:1006500008600F490D4808600F490E4808601049AE
:100660000E48086010490F48086011490F4808609B
:1006700011491048086000F013FA2046BDE8104008
:10068000FFF758BDBF06000888010020C10600081A
:100690008C010020C3060008900100203D060008E0
:1006A00094010020BD06000898010020C50600083E
:1006B0009C010020C7060008A00100207047704779
:1006C000704770477047704700B585B0684604F0C2
:1006D000ABFE019805B000BDF8B501215C2004F027
:1006E00097FEE020ADF8000003268DF8026010258B
:1006F0008DF8035069461F4800F02EFB1D480C3052
:10070000016841F080010160016841F02001016051
:100710004FF41060ADF80000174F8DF802608DF8AF
:1007200003506946384600F017FB134C0C34206820
:1007300040F4106020608020ADF800008DF8026069
:100740008DF803506946384600F006FB206820F01B
:1007500080002060ADF800508DF802608DF80350E5
:100760006946384600F0F8FA206820F01000206052
:10077000F8BD0000000C014000080140FFF7ACBFCD
:1007800038B53248007800285ED000F0D3F800F089
:10079000A7F8FFF7F3FF00F09DF800F085F804F0EC
:1007A000EDFD002140F6B73000F082FA28480168DC
:1007B00041F04001016027480178801E008861F304
:1007C0001F2008B1FF2800D90520C1B2224C2148C2
:1007D000204A2170001D921C0078138860F31F23AB
:1007E000B3F5166F0AD0B3F5965F07D04FF41650E5
:1007F000834203D0B3F5964F00D00346A380002078
:100800000122009006F0A0F80323144A01213420AD
:1008100006F04EFB05F0CAFE114D286840F01000AE
:100820002860A28821780FA005F070FA1448C279D8
:10083000817914A005F06AFA286820F01000286079
:10084000BDE8384002F000BA38BD0000B001002019
:100850000C0C014002FC0008020000202C7C000867
:100860000C080140416464726573733A25642C423C
:10087000617564726174653A25640D0A00000000B8
:10088000D6250020504D325F355F666163746F720C
:100890003A25642C504D31305F666163746F723A53
:1008A00025640D0A0000000008B505F031F94FF489
:1008B000C06002F0A1FC27208DF8000000208DF818
:1008C000010001208DF802008DF80300684602F057
:1008D00061FC08BD05F0C2B8FFF724BCFEE70000CC
:1008E00010B500240349204600F006F8641C522C81
:1008F000F8D310BDDD08000870B50D460446522837
:100900000ED2FFF713FC064600F0BAF8054840F88F
:10091000245000F0C5F83046BDE87040FFF70ABC2F
:1009200070BD00002826002008B56A46002103F0AB
:1009300075FA08BD10B5FFF7C7FE0B490968B0FB93
:10094000F1F0B0F1807F0ED220F07F414FF0E02037
:10095000491E4161054AF02182F8141D0021816180
:100960000721016110BDFEE7787E00080FE000E07E
:1009700010B540210348FFF747FC034900200880D9
:1009800010BD000048250020000000200020054A7E
:1009900001461154401C80B24028FAD3024801801D
:1009A00070470000E82500200C000020054910B524
:1009B0000020486000F0CEF800F006F8BDE81040D6
:1009C00000F086B8640100202DE9F041104D0024AC
:1009D00027462C806C80AC60EC606C61AC612C6153
:1009E000FFF7A4FB804600266C6100F049F800F098
:1009F00057F86869761C36040744360CF4D0C5E90C
:100A000004744046AC61BDE8F041FFF793BB0000C1
:100A10006401002003490969884201D9401A7047DE
:100A2000002070476401002010B5FFF77FFB0449E8
:100A30004C69FFF77FFB2046BDE81040FFF7EABF97
:100A40006401002010B5FFF7EFFF0446FFF76EFBCF
:100A5000034A00215161FFF76DFB204610BD0000E5
:100A60006401002010B5FFF761FB04498C69FFF7B2
:100A700061FB2046BDE81040FFF7CCBF64010020B9
:100A800010B5064C2088401C2080608810B900F00A
:100A900079F8A0606088401C608010BD640100206F
:100AA00010B50A4C6088401E0004000C60800CD118
:100AB00000F068F8E060A168401A6169814200D2E4
:100AC0006061A169814200D2A06110BD6401002073
:100AD00010B5FFF72BFB0446FFF7D2FF10210548A6
:100AE00002F0C6FAFFF7DCFF2046BDE81040FFF732
:100AF00021BB0000A42C002070B50C00054616D0C8
:100B0000B5B1102104F0C9FD102814D2FFF70EFB77
:100B10000646FFF7B5FF10222946094804F0A4FD58
:100B2000FFF7BEFF3046FFF705FB002005E0FEE7BC
:100B30000A20088070BD4FF47A70208070BD0000DC
:100B4000A42C0020FEE70000014948607047000027
:100B50006401002010B5FFF7B7FD08490A6842F0AC
:100B600080720A60064900224A600A6842F0010267
:100B70000A60BDE81040FFF7E7BF0000FCED00E0B1
:100B8000001000E00148406870470000001000E0DD
:100B90000149C860704700000020024070B505465A
:100BA0004FF43026304600F059F8042811D1094C92
:100BB000206940F0020020616561206940F040003A
:100BC0002061304600F04AF8216941F6FD7211407B
:100BD000216170BD0020024008490420CA68D20784
:100BE00001D001207047CA68520701D50220704722
:100BF000C968C906FBD503207047000000200240E9
:100C00000248016941F08001016170470020024003
:100C1000F0B506464FF400570D46384600F01EF872
:100C200004280CD1064C206940F001002061358079
:100C3000384600F013F82169BA1E11402161F0BD59
:100C40000020024003480249416003494160704767
:100C50002301674500200240AB89EFCD00B5034674
:100C6000FFF7BAFF03E000BFFFF7B6FF5B1E0128E6
:100C700003D0002B00D1052000BD002BF4D1FAE7F2
:100C800010B501460348FFF7CAFA002800D001203A
:100C900010BD00004825002010B501460348FFF7AD
:100CA000BEFA002800D0012010BD0000E825002079
:100CB00030B50C46054687B00121022004F09CFBAC
:100CC00001210D2004F0A4FB8020ADF800001820C5
:100CD0008DF8030003208DF8020069461A4800F0E1
:100CE0003BF80121194800F089F80121184800F06B
:100CF00085F8ADF81450ADF810400024154DADF84E
:100D00001640ADF8124004A9284604F0D9FD702021
:100D1000ADF800000120ADF80200ADF80640ADF8D6
:100D200008406946284604F07DFD0821284604F065
:100D3000B9FD0121284604F047FD0121284604F0B1
:100D400053FD07B030BD0000000801400002300034
:100D50000003180000040040F0B5CA78002502F036
:100D60000F03D20601D58A7813430A784FF00F0E8D
:100D700012F0FF0F4FF001021CD004680F8802FA36
:100D800005F63740B74211D14FEA850C0EFA0CF741
:100D900024EA070703FA0CF43C43CF78282F02D04B
:100DA000482F02D002E0466100E006616D1C082D6C
:100DB000E4D304600C88FF2C1ED944685FF0000661
:100DC00006F1080702FA07F50F882F40AF420FD14E
:100DD0004FEA860C0EFA0CF7BC4303FA0CF73C43BF
:100DE000CF78282F00D14561CF78482F00D10561F9
:100DF000761C082EE4D34460F0BD0000F0B5144C1E
:100E0000002801DAE36900E06368420D120185B24F
:100E1000C0F301579540C0F30346032F05D0C2022B
:100E20000AD50322B240934307E023F0706263685F
:100E300023F07063636002E0AB4343F0706201B182
:100E40002A43002801DAE261F0BD6260F0BD0000D3
:100E50000000014010B5144C607C012815D000281A
:100E600021D105F0C7FA3220FFF75EFD002005F022
:100E7000A7FA3220FFF758FD5FF0000005F0D4FA22
:100E8000BDE810403220FFF74FBD208805F0B2FAD0
:100E90003220FFF749FD608805F092FA3220FFF713
:100EA00043FDA088EAE710BDD625002030B597B0F5
:100EB00014222DA10CA8FFF780F918222FA1684653
:100EC000FFF77BF9182233A106A8FFF776F937A0C0
:100ED00011AB07C883E8070037A014AB07C883E845
:100EE000070011A8FFF7D8FE0124364D00282DD0A9
:100EF000FFF74CFD1621684604F030FD32A004F0E7
:100F000005FF00F02DFA3348C18933A004F0FEFE3E
:100F100034480078002825D006F0E8FB162106A802
:100F200004F01CFD3220FFF7FFFCFFF72FFD12211C
:100F30000CA804F013FD3220FFF7F6FC0A212A4822
:100F400004F00CFD29A004F0E1FE08E014A8FFF76E
:100F5000A3FE002806D00A21234804F0FFFC2C70D1
:100F6000FFF714FD17B030BD5AA50F821734B2CE6B
:100F7000CAFDC9E8D6C3B3C9B9A600005AA51382F1
:100F80001734B2CECAFDD0B4C8EBD6D0C7EBC9D4A3
:100F9000B5C800005AA513821734000000000000F5
:100FA0000000000000000000000000005AA50683B9
:100FB00010410100070000005AA50683FF1201003E
:100FC00008000000040000206765742E2E2E2E0DF0
:100FD0000A000000D625002053504545443A2564B8
:100FE0000D0A00000300002038000020676574200F
:100FF000737563636565640D0A00000070B59AB08F
:10100000142235A10CA8FFF7D8F8182237A168469A
:10101000FFF7D3F818223BA106A8FFF7CEF83FA0B0
:1010200011AB07C883E807003FA214AB07CA83E8E7
:10103000070040A217AB07CA83E8070011A8FFF713
:101040002BFE3F4E01243F4D00282BD0FFF79EFC86
:101050001621684604F082FC3BA004F057FE00F025
:10106000BFF971893BA004F051FE7089002824D09B
:1010700006F04EFB162106A804F070FC3220FFF7A4
:1010800053FCFFF783FC12210CA804F067FC32200C
:10109000FFF74AFC0A21364804F060FC35A004F052
:1010A00035FE07E014A8FFF7F7FD40B10A213048EC
:1010B00004F054FC2C70FFF769FC1AB070BD17A83F
:1010C000FFF7EAFD0028F8D00A21294804F046FC81
:1010D0002C4970894880EDE75AA50F821734B2CEAB
:1010E000CAFDC9E8D6C3B3C9B9A600005AA5138280
:1010F0001734B2CECAFDD0B4C8EBD6D0C7EBC9D432
:10110000B5C800005AA51382173400000000000083
:101110000000000000000000000000005AA5068347
:1011200010410100070000005AA50683FF120100CC
:10113000080000005AA50683FF1401000800000003
:10114000D6250020040000206765742E2E2E2E0D5B
:101150000A0000004765745F5A65726F5F43616CF7
:101160006962726174696F6E3A25640D0A0000004D
:101170003800002067657420737563636565640DCE
:101180000A000000080000201CB51BA1D1E90001E5
:10119000CDE90001FFF7FAFB0721684604F0DEFB0A
:1011A0000A20FFF7C1FB164801785A2913D0002105
:1011B0004278A52A11D0002211400279102A0ED0BF
:1011C000002211404279322A0BD00022007A1140CD
:1011D00048B1012208E00121EAE70122ECE70122FF
:1011E000EFE70122F2E70022114203D0054908701F
:1011F000FFF7CCFB1CBD00005AA504831032010090
:10120000E82500200300002070B598B014222DA11D
:101210000CA8FEF7D2FF18222FA16846FEF7CDFFDB
:10122000182233A106A8FEF7C8FF37A011AB07C8E4
:1012300083E8070037A014AB07C883E8070011A8AC
:10124000FFF72AFD0124364D00282CD0FFF79EFB26
:101250001621684604F082FB32A004F057FDFFF728
:1012600093FF334E33A0317804F050FD30780028DE
:1012700025D006F029FA162106A804F06FFB3220CB
:10128000FFF752FBFFF782FB12210CA804F066FB6C
:101290003220FFF749FB0A212C4804F05FFB2CA009
:1012A00004F034FD08E014A8FFF7F6FC002806D08F
:1012B0000A21264804F052FB2C70FFF767FB18B098
:1012C00070BD00005AA50F821734B2CECAFDC9E81E
:1012D000D6C3B3C9B9A600005AA513821734B2CE3B
:1012E000CAFDD0B4C8EBD6D0C7EBC9D4B5C800008E
:1012F0005AA513821734000000000000000000000F
:1013000000000000000000005AA506831041010003
:10131000070000005AA50683FF1201000800000024
:10132000040000206765742E2E2E2E0D0A0000008A
:101330000300002053616D706C696E675F706572A9
:10134000696F643A25640D0A00000000380000202F
:1013500067657420737563636565640D0A0000003A
:101360001CB51BA1D1E90001CDE90001FFF70EFB7F
:101370000721684604F0F2FA0A20FFF7D5FA16486A
:1013800001785A2913D000214278A52A11D00022D1
:1013900011400279102A0ED0002211404279522ABF
:1013A0000BD00022007A114048B1012208E001214F
:1013B000EAE70122ECE70122EFE70122F2E700224F
:1013C000114203D00549C881FFF7E0FA1CBD0000B7
:1013D0005AA5048310520100E8250020D6250020DC
:1013E0001CB51BA1D1E90001CDE90001FFF7CEFA40
:1013F0000721684604F0B2FA0A20FFF795FA16486A
:1014000001785A2913D000214278A52A11D0002250
:1014100011400279102A0ED0002211404279622A2E
:101420000BD00022007A114048B1012208E00121CE
:10143000EAE70122ECE70122EFE70122F2E70022CE
:10144000114203D005494881FFF7A0FA1CBD0000F6
:101450005AA5048310620100E8250020D62500204B
:101460001CB51BA1D1E90001CDE90001FFF78EFAFF
:101470000721684604F072FA0A20FFF755FA164869
:1014800001785A291BD000214278A52A19D00022C0
:1014900011400279172A16D0002211404279A2B1D8
:1014A00000221140027A02B10122114206D0B0F8A6
:1014B00007000A4940BA0880FFF768FA1CBD0121FD
:1014C000E2E70122E4E70122E7E70122E9E7000081
:1014D0005AA5048317000100E82500209A25002062
:1014E0001CB51BA1D1E90001CDE90001FFF74EFABF
:1014F0000721684604F032FA0A20FFF715FA164869
:1015000001785A291CD000214278A52A1AD000223D
:1015100011400279172A17D0002211404279082A77
:1015200014D000221140027A02B10122114206D0E9
:10153000B0F80700094940BA0881FFF727FA1CBD37
:101540000121E1E70122E3E70122E6E70122E9E7E1
:101550005AA5048317080100E82500209A250020D9
:101560001CB51BA1D1E90001CDE90001FFF70EFA7E
:101570000721684604F0F2F90A20FFF7D5F916486A
:1015800001785A291CD000214278A52A1AD00022BD
:1015900011400279172A17D0002211404279042AFB
:1015A00014D000221140027A02B10122114206D069
:1015B000B0F80700094940BA8880FFF7E7F91CBD79
:1015C0000121E1E70122E3E70122E6E70122E9E761
:1015D0005AA5048317040100E82500209A2500205D
:1015E0001CB51BA1D1E90001CDE90001FFF7CEF93F
:1015F0000721684604F0B2F90A20FFF795F916486A
:1016000001785A291CD000214278A52A1AD000223C
:1016100011400279172A17D0002211404279122A6C
:1016200014D000221140027A02B10122114206D0E8
:10163000B0F80700094940BA0882FFF7A7F91CBDB6
:101640000121E1E70122E3E70122E6E70122E9E7E0
:101650005AA5048317120100E82500209A250020CE
:101660001CB51BA1D1E90001CDE90001FFF78EF9FE
:101670000721684604F072F90A20FFF755F9164869
:1016800001785A291CD000214278A52A1AD00022BC
:1016900011400279172A17D00022114042790A2AF4
:1016A00014D000221140027A02B10122114206D068
:1016B000B0F80700094940BA4881FFF767F91CBD37
:1016C0000121E1E70122E3E70122E6E70122E9E760
:1016D0005AA50483170A0100E82500209A25002056
:1016E0001CB51BA1D1E90001CDE90001FFF74EF9BE
:1016F0000721684604F032F90A20FFF715F9164869
:1017000001785A291CD000214278A52A1AD000223B
:1017100011400279172A17D0002211404279142A69
:1017200014D000221140027A02B10122114206D0E7
:10173000B0F80700094940BA4882FFF727F91CBDF5
:101740000121E1E70122E3E70122E6E70122E9E7DF
:101750005AA5048317140100E82500209A250020CB
:101760001CB51BA1D1E90001CDE90001FFF70EF97D
:101770000721684604F0F2F80A20FFF7D5F816486A
:1017800001785A291CD000214278A52A1AD00022BB
:1017900011400279172A17D00022114042790C2AF1
:1017A00014D000221140027A02B10122114206D067
:1017B000B0F80700094940BA8881FFF7E7F81CBD77
:1017C0000121E1E70122E3E70122E6E70122E9E75F
:1017D0005AA50483170C0100E82500209A25002053
:1017E0001CB51BA1D1E90001CDE90001FFF7CEF83E
:1017F0000721684604F0B2F80A20FFF795F816486A
:1018000001785A291CD000214278A52A1AD000223A
:1018100011400279172A17D0002211404279062A76
:1018200014D000221140027A02B10122114206D0E6
:10183000B0F80700094940BAC880FFF7A7F81CBDF7
:101840000121E1E70122E3E70122E6E70122E9E7DE
:101850005AA5048317060100E82500209A250020D8
:101860001CB51BA1D1E90001CDE90001FFF78EF8FD
:101870000721684604F072F80A20FFF755F8164869
:1018800001785A291CD000214278A52A1AD00022BA
:1018900011400279172A17D0002211404279022AFA
:1018A00014D000221140027A02B10122114206D066
:1018B000B0F80700094940BA4880FFF767F81CBD37
:1018C0000121E1E70122E3E70122E6E70122E9E75E
:1018D0005AA5048317020100E82500209A2500205C
:1018E0001CB51BA1D1E90001CDE90001FFF74EF8BD
:1018F0000721684604F032F80A20FFF715F8164869
:1019000001785A291CD000214278A52A1AD0002239
:1019100011400279172A17D00022114042790F2A6C
:1019200014D000221140027A02B10122114206D0E5
:10193000B0F80700094940BAC881FFF727F81CBD75
:101940000121E1E70122E3E70122E6E70122E9E7DD
:101950005AA50483170F0100E82500209A250020CE
:1019600070B598B014224CA10CA8FEF726FC1822E2
:101970004EA16846FEF721FC182252A106A8FEF7E8
:101980001CFC56A111AB07C983E8070056A014AB95
:1019900007C883E8070011A8FFF77EF90125554E17
:1019A00000286BD0FEF7F2FF1621684603F0D6FF41
:1019B00051A004F0ABF9FFF753FDFFF751FFFFF71C
:1019C000CFFDFFF70DFFFFF78BFDFFF749FEFFF798
:1019D000C7FEFFF785FFFFF703FEFFF781FE494CC7
:1019E00049A0218804F092F961884DA004F08EF995
:1019F000A18851A004F08AF9E18855A004F086F985
:101A000021895AA004F082F961895FA004F07EF96F
:101A1000A18964A004F07AF9E18969A004F076F95B
:101A2000218A6EA004F072F9618A73A004F06EF945
:101A3000608800B10120A18801B101210840618ABC
:101A400001B10121084225D005F074FE162106A837
:101A500003F084FF3220FEF767FFFEF797FF1221A5
:101A60000CA803F07BFF3220FEF75EFF0A216948D5
:101A700003F074FF68A004F049F908E014A8FFF728
:101A80000BF9002806D00A21624803F067FF357081
:101A9000FEF77CFF18B070BD5AA50F821734B2CE86
:101AA000CAFDC9E8D6C3B3C9B9A600005AA51382B6
:101AB0001734B2CECAFDD0B4C8EBD6D0C7EBC9D468
:101AC000B5C800005AA513821734000000000000BA
:101AD0000000000000000000000000005AA506837E
:101AE00010410100070000005AA50683FF12010003
:101AF00008000000040000206765742E2E2E2E0DB5
:101B00000A0000009A250020436F665B305D2E6E50
:101B1000756D5F305F35303A25640D0A00000000B6
:101B2000436F665B305D2E6E756D5F35305F3130B3
:101B3000303A25640D0A0000436F665B305D2E6EFF
:101B4000756D5F3130305F3530303A25640D0A00F5
:101B5000436F665B305D2E6E756D5F3530305F3183
:101B60003030303A25640D0A00000000436F665B98
:101B7000305D2E6E756D5F313030305F3135303015
:101B80003A25640D0A000000436F665B305D2E6EDF
:101B9000756D5F313530305F333030303A25640D4C
:101BA0000A000000436F665B305D2E6E756D5F331B
:101BB0003030305F383030303A25640D0A00000094
:101BC000436F665B305D2E6E756D5F383030305F11
:101BD00031333030303A25640D0A0000436F665BC4
:101BE000305D2E6E756D5F31333030305F323030A6
:101BF00030303A25640D0A00436F665B305D2E6E0F
:101C0000756D5F32303030305F33303030303A25F0
:101C1000640D0A00380000206765742073756363E3
:101C20006565640D0A0000001CB51BA1D1E9000127
:101C3000CDE90001FEF7AAFE0721684603F08EFEFB
:101C40000A20FEF771FE164801785A291BD00021A0
:101C50004278A52A19D0002211400279182A16D0FC
:101C6000002211404279A2B100221140027A02B151
:101C70000122114206D0B0F807000A4940BA888212
:101C8000FEF784FE1CBD0121E2E70122E4E7012208
:101C9000E7E70122E9E700005AA5048318000100E4
:101CA000E82500209A2500201CB51BA1D1E90001E0
:101CB000CDE90001FEF76AFE0721684603F04EFEFB
:101CC0000A20FEF731FE164801785A291CD000215F
:101CD0004278A52A1AD0002211400279182A17D07A
:101CE000002211404279082A14D000221140027AC1
:101CF00002B10122114206D0B0F80700094940BAEA
:101D00008883FEF743FE1CBD0121E1E70122E3E7E2
:101D10000122E6E70122E9E75AA504831808010039
:101D2000E82500209A2500201CB51BA1D1E900015F
:101D3000CDE90001FEF72AFE0721684603F00EFEFA
:101D40000A20FEF7F1FD164801785A291CD000211F
:101D50004278A52A1AD0002211400279182A17D0F9
:101D6000002211404279042A14D000221140027A44
:101D700002B10122114206D0B0F80700094940BA69
:101D80000883FEF703FE1CBD0121E1E70122E3E722
:101D90000122E6E70122E9E75AA5048318040100BD
:101DA000E82500209A2500201CB51BA1D1E90001DF
:101DB000CDE90001FEF7EAFD0721684603F0CEFDFC
:101DC0000A20FEF7B1FD164801785A291CD00021DF
:101DD0004278A52A1AD0002211400279182A17D079
:101DE000002211404279122A14D000221140027AB6
:101DF00002B10122114206D0B0F80700094940BAE9
:101E00008884FEF7C3FD1CBD0121E1E70122E3E761
:101E10000122E6E70122E9E75AA50483181201002E
:101E2000E82500209A2500201CB51BA1D1E900015E
:101E3000CDE90001FEF7AAFD0721684603F08EFDFB
:101E40000A20FEF771FD164801785A291CD000219E
:101E50004278A52A1AD0002211400279182A17D0F8
:101E60000022114042790A2A14D000221140027A3D
:101E700002B10122114206D0B0F80700094940BA68
:101E8000C883FEF783FD1CBD0121E1E70122E3E7E2
:101E90000122E6E70122E9E75AA50483180A0100B6
:101EA000E82500209A2500201CB51BA1D1E90001DE
:101EB000CDE90001FEF76AFD0721684603F04EFDFB
:101EC0000A20FEF731FD164801785A291CD000215E
:101ED0004278A52A1AD0002211400279182A17D078
:101EE000002211404279142A14D000221140027AB3
:101EF00002B10122114206D0B0F80700094940BAE8
:101F0000C884FEF743FD1CBD0121E1E70122E3E7A0
:101F10000122E6E70122E9E75AA50483181401002B
:101F2000E82500209A2500201CB51BA1D1E900015D
:101F3000CDE90001FEF72AFD0721684603F00EFDFA
:101F40000A20FEF7F1FC164801785A291CD000211E
:101F50004278A52A1AD0002211400279182A17D0F7
:101F60000022114042790C2A14D000221140027A3A
:101F700002B10122114206D0B0F80700094940BA67
:101F80000884FEF703FD1CBD0121E1E70122E3E720
:101F90000122E6E70122E9E75AA50483180C0100B3
:101FA000E82500209A2500201CB51BA1D1E90001DD
:101FB000CDE90001FEF7EAFC0721684603F0CEFCFC
:101FC0000A20FEF7B1FC164801785A291CD00021DE
:101FD0004278A52A1AD0002211400279182A17D077
:101FE000002211404279062A14D000221140027AC0
:101FF00002B10122114206D0B0F80700094940BAE7
:102000004883FEF7C3FC1CBD0121E1E70122E3E7A1
:102010000122E6E70122E9E75AA504831806010038
:10202000E82500209A2500201CB51BA1D1E900015C
:10203000CDE90001FEF7AAFC0721684603F08EFCFB
:102040000A20FEF771FC164801785A291CD000219D
:102050004278A52A1AD0002211400279182A17D0F6
:10206000002211404279022A14D000221140027A43
:1020700002B10122114206D0B0F80700094940BA66
:10208000C882FEF783FC1CBD0121E1E70122E3E7E2
:102090000122E6E70122E9E75AA5048318020100BC
:1020A000E82500209A2500201CB51BA1D1E90001DC
:1020B000CDE90001FEF76AFC0721684603F04EFCFB
:1020C0000A20FEF731FC164801785A291CD000215D
:1020D0004278A52A1AD0002211400279182A17D076
:1020E0000022114042790F2A14D000221140027AB6
:1020F00002B10122114206D0B0F80700094940BAE6
:102100004884FEF743FC1CBD0121E1E70122E3E71F
:102110000122E6E70122E9E75AA50483180F01002E
:10212000E82500209A25002070B598B014224CA113
:102130000CA8FEF742F818224EA16846FEF73DF8BB
:10214000182252A106A8FEF738F856A111AB07C90C
:1021500083E8070056A014AB07C883E8070011A85E
:10216000FEF79AFD0125554E00286BD0FEF70EFCB8
:102170001621684603F0F2FB51A003F0C7FDFFF7FC
:1021800053FDFFF751FFFFF7CFFDFFF70DFFFFF7FF
:102190008BFDFFF749FEFFF7C7FEFFF785FFFFF74F
:1021A00003FEFFF781FE494C49A0A18A03F0AEFD72
:1021B000E18A4DA003F0AAFD218B51A003F0A6FDFA
:1021C000618B55A003F0A2FDA18B5AA003F09EFDE8
:1021D000E18B5FA003F09AFD218C64A003F096FDD3
:1021E000618C69A003F092FDA18C6EA003F08EFDBE
:1021F000E18C73A003F08AFDE08A00B10120218BFD
:1022000001B101210840E18C01B10121084225D032
:1022100005F0B0FA162106A803F0A0FB3220FEF765
:1022200083FBFEF7B3FB12210CA803F097FB3220CF
:10223000FEF77AFB0A21694803F090FB68A003F0DF
:1022400065FD08E014A8FEF727FD002806D00A2146
:10225000624803F083FB3570FEF798FB18B070BD41
:102260005AA50F821734B2CECAFDC9E8D6C3B3C986
:10227000B9A600005AA513821734B2CECAFDD0B455
:10228000C8EBD6D0C7EBC9D4B5C800005AA5138295
:1022900017340000000000000000000000000000F3
:1022A000000000005AA5068310410100070000004D
:1022B0005AA50683FF120100080000000400002058
:1022C0006765742E2E2E2E0D0A0000009A25002020
:1022D000436F665B315D2E6E756D5F305F35303AF2
:1022E00025640D0A00000000436F665B315D2E6EB1
:1022F000756D5F35305F3130303A25640D0A00006E
:10230000436F665B315D2E6E756D5F3130305F35CA
:1023100030303A25640D0A00436F665B315D2E6EE6
:10232000756D5F3530305F313030303A25640D0ADD
:1023300000000000436F665B315D2E6E756D5F318E
:102340003030305F313530303A25640D0A000000FE
:10235000436F665B315D2E6E756D5F313530305F7A
:10236000333030303A25640D0A000000436F665B5D
:10237000315D2E6E756D5F333030305F3830303008
:102380003A25640D0A000000436F665B315D2E6ED6
:10239000756D5F383030305F31333030303A25641E
:1023A0000D0A0000436F665B315D2E6E756D5F3107
:1023B000333030305F32303030303A25640D0A002F
:1023C000436F665B315D2E6E756D5F32303030303D
:1023D0005F33303030303A25640D0A003800002079
:1023E00067657420737563636565640D0A0000009A
:1023F0001CB51BA1D1E90001CDE90001FEF7C6FA29
:102400000721684603F0AAFA0A20FEF78DFA16485B
:1024100001785A291BD000214278A52A19D0002220
:1024200011400279192A16D0002211404279A2B136
:1024300000221140027A02B10122114206D0B0F806
:1024400007000A4940BA0885FEF7A0FA1CBD012121
:10245000E2E70122E4E70122E7E70122E9E70000E1
:102460005AA5048319000100E82500209A250020C0
:102470001CB51BA1D1E90001CDE90001FEF786FAE8
:102480000721684603F06AFA0A20FEF74DFA16485B
:1024900001785A291CD000214278A52A1AD000229E
:1024A00011400279192A17D0002211404279082AD6
:1024B00014D000221140027A02B10122114206D04A
:1024C000B0F80700094940BA0886FEF75FFA1CBD5C
:1024D0000121E1E70122E3E70122E6E70122E9E742
:1024E0005AA5048319080100E82500209A25002038
:1024F0001CB51BA1D1E90001CDE90001FEF746FAA8
:102500000721684603F02AFA0A20FEF70DFA16485A
:1025100001785A291CD000214278A52A1AD000221D
:1025200011400279192A17D0002211404279042A59
:1025300014D000221140027A02B10122114206D0C9
:10254000B0F80700094940BA8885FEF71FFA1CBD9C
:102550000121E1E70122E3E70122E6E70122E9E7C1
:102560005AA5048319040100E82500209A250020BB
:102570001CB51BA1D1E90001CDE90001FEF706FA67
:102580000721684603F0EAF90A20FEF7CDF916485C
:1025900001785A291CD000214278A52A1AD000229D
:1025A00011400279192A17D0002211404279122ACB
:1025B00014D000221140027A02B10122114206D049
:1025C000B0F80700094940BA0887FEF7DFF91CBDDB
:1025D0000121E1E70122E3E70122E6E70122E9E741
:1025E0005AA5048319120100E82500209A2500202D
:1025F0001CB51BA1D1E90001CDE90001FEF7C6F928
:102600000721684603F0AAF90A20FEF78DF916485B
:1026100001785A291CD000214278A52A1AD000221C
:1026200011400279192A17D00022114042790A2A52
:1026300014D000221140027A02B10122114206D0C8
:10264000B0F80700094940BA4886FEF79FF91CBD5B
:102650000121E1E70122E3E70122E6E70122E9E7C0
:102660005AA50483190A0100E82500209A250020B4
:102670001CB51BA1D1E90001CDE90001FEF786F9E7
:102680000721684603F06AF90A20FEF74DF916485B
:1026900001785A291CD000214278A52A1AD000229C
:1026A00011400279192A17D0002211404279142AC8
:1026B00014D000221140027A02B10122114206D048
:1026C000B0F80700094940BA4887FEF75FF91CBD1A
:1026D0000121E1E70122E3E70122E6E70122E9E740
:1026E0005AA5048319140100E82500209A2500202A
:1026F0001CB51BA1D1E90001CDE90001FEF746F9A7
:102700000721684603F02AF90A20FEF70DF916485A
:1027100001785A291CD000214278A52A1AD000221B
:1027200011400279192A17D00022114042790C2A4F
:1027300014D000221140027A02B10122114206D0C7
:10274000B0F80700094940BA8886FEF71FF91CBD9A
:102750000121E1E70122E3E70122E6E70122E9E7BF
:102760005AA50483190C0100E82500209A250020B1
:102770001CB51BA1D1E90001CDE90001FEF706F966
:102780000721684603F0EAF80A20FEF7CDF816485C
:1027900001785A291CD000214278A52A1AD000229B
:1027A00011400279192A17D0002211404279062AD5
:1027B00014D000221140027A02B10122114206D047
:1027C000B0F80700094940BAC885FEF7DFF81CBD1C
:1027D0000121E1E70122E3E70122E6E70122E9E73F
:1027E0005AA5048319060100E82500209A25002037
:1027F0001CB51BA1D1E90001CDE90001FEF7C6F827
:102800000721684603F0AAF80A20FEF78DF816485B
:1028100001785A291CD000214278A52A1AD000221A
:1028200011400279192A17D0002211404279022A58
:1028300014D000221140027A02B10122114206D0C6
:10284000B0F80700094940BA4885FEF79FF81CBD5B
:102850000121E1E70122E3E70122E6E70122E9E7BE
:102860005AA5048319020100E82500209A250020BA
:102870001CB51BA1D1E90001CDE90001FEF786F8E6
:102880000721684603F06AF80A20FEF74DF816485B
:1028900001785A291CD000214278A52A1AD000229A
:1028A00011400279192A17D00022114042790F2ACB
:1028B00014D000221140027A02B10122114206D046
:1028C000B0F80700094940BAC886FEF75FF81CBD9A
:1028D0000121E1E70122E3E70122E6E70122E9E73E
:1028E0005AA50483190F0100E82500209A2500202D
:1028F00070B598B014224CA10CA8FDF75EFC18220C
:102900004EA16846FDF759FC182252A106A8FDF712
:1029100054FC56A111AB07C983E8070056A014ABBD
:1029200007C883E8070011A8FEF7B6F90125554E40
:1029300000286BD0FEF72AF81621684603F00EF83F
:1029400051A003F0E3F9FFF753FDFFF751FFFFF745
:10295000CFFDFFF70DFFFFF78BFDFFF749FEFFF7F8
:10296000C7FEFFF785FFFFF703FEFFF781FE494C27
:1029700049A0218D03F0CAF9618D4DA003F0C6F97D
:10298000A18D51A003F0C2F9E18D55A003F0BEF96D
:10299000218E5AA003F0BAF9618E5FA003F0B6F958
:1029A000A18E64A003F0B2F9E18E69A003F0AEF944
:1029B000218F6EA003F0AAF9618F73A003F0A6F92E
:1029C000608D00B10120A18D01B101210840618F0E
:1029D00001B10121084225D004F0ECFE162106A821
:1029E00002F0BCFF3220FDF79FFFFDF7CFFF122161
:1029F0000CA802F0B3FF3220FDF796FF0A216948C8
:102A000002F0ACFF68A003F081F908E014A8FEF71B
:102A100043F9002806D00A21624802F09FFF357072
:102A2000FDF7B4FF18B070BD5AA50F821734B2CEAF
:102A3000CAFDC9E8D6C3B3C9B9A600005AA5138216
:102A40001734B2CECAFDD0B4C8EBD6D0C7EBC9D4C8
:102A5000B5C800005AA5138217340000000000001A
:102A60000000000000000000000000005AA50683DE
:102A700010410100070000005AA50683FF12010063
:102A800008000000040000206765742E2E2E2E0D15
:102A90000A0000009A250020436F665B325D2E6EAF
:102AA000756D5F305F35303A25640D0A0000000017
:102AB000436F665B325D2E6E756D5F35305F313012
:102AC000303A25640D0A0000436F665B325D2E6E5E
:102AD000756D5F3130305F3530303A25640D0A0056
:102AE000436F665B325D2E6E756D5F3530305F31E2
:102AF0003030303A25640D0A00000000436F665BF9
:102B0000325D2E6E756D5F313030305F3135303073
:102B10003A25640D0A000000436F665B325D2E6E3D
:102B2000756D5F313530305F333030303A25640DAC
:102B30000A000000436F665B325D2E6E756D5F3379
:102B40003030305F383030303A25640D0A000000F4
:102B5000436F665B325D2E6E756D5F383030305F6F
:102B600031333030303A25640D0A0000436F665B24
:102B7000325D2E6E756D5F31333030305F32303004
:102B800030303A25640D0A00436F665B325D2E6E6D
:102B9000756D5F32303030305F33303030303A2551
:102BA000640D0A0038000020676574207375636344
:102BB0006565640D0A00000001A003F0A7F8FBE7BB
:102BC000486172644661756C745F48616E646C65DF
:102BD000722E2E2E0D0A000070B504460D4645F2E9
:102BE000555000F02BF8204600F01CF8284600F065
:102BF0001FF800F00FF8BDE8704000F001B80000C9
:102C000002494CF6CC40086070470000003000409C
:102C1000AFF3008002494AF6AA200860704700001E
:102C2000003000400149486070470000003000401B
:102C30000149886070470000003000400149086089
:102C400070470000003000402DE9FC5FDFF878821B
:102C500000274FF4B856D8F80000444640F0100062
:102C6000C8F800004D219948CDE9000198A39DA224
:102C70009FA1A2A003F04AF8A6A003F047F820689D
:102C800020F0100020601421A348FDF7BDFAA348EE
:102C9000002412210470A0483C30FDF7B5FADFF89B
:102CA0007CB29F48ABF1020B9B4DCBF806400178FC
:102CB000801E3C35008861F31F20020A541E0A2141
:102CC000C3B2FE2C10D2FE2B0ED86BB1A871EA71E4
:102CD0009348001D0278801E008862F31F20421E68
:102CE000FE2A04D3297203E0A971E971F0E7287282
:102CF0008B488B490C300A3100780C8860F31F2414
:102D0000D8F8000040F01001C8F80010214685A056
:102D100002F0FCFFD8F8000020F01001C8F8001005
:102D2000B4F5967F02D93C20A88100E0AC81D8F8A8
:102D30000000444640F01000C8F80000AA462B7A74
:102D4000EA79A9797DA002F0E1FFAA89698987A0C3
:102D500002F0DCFF206820F0100020604FF4FA70D1
:102D6000FDF7E2FD04F03EF904F0B4F904F02AFAAC
:102D700004F0A0FA04F0FAFA04F04EFBDFF89891A0
:102D800007EB870109EB81085FF00005304638F852
:102D9000151003F0F7FA206840F01000206038F8B2
:102DA000152031467BA002F0B1FF206820F0100012
:102DB0002060B61C6D1CEDB2B6B2072DE6D3F2361C
:102DC0007F1CFFB2B6B2032FDAD375A002F09EFFCC
:102DD00041F20F755FF0000707EB870109EB8100F7
:102DE00000F10E085FF00006284638F8161003F0D0
:102DF000C9FA206840F01000206038F816202946F3
:102E000064A002F083FF206820F010002060ED1C19
:102E1000761CF6B2ADB2022EE6D3FA357F1CFFB2B5
:102E2000ADB2032FD8D35EA002F070FF41F214754B
:102E30005FF0000707EB870109EB810000F1120842
:102E40005FF00006284638F8161003F09BFA206859
:102E500040F01000206038F8162029464DA002F0FE
:102E600055FF206820F010002060AD1C761CADB22C
:102E700016F0FF06E6D0FE357F1CFFB2ADB2032F81
:102E8000D8D39BF8011041F2320003F07BFA3220D4
:102E9000FDF74AFD5446BAF80E1041F2520003F015
:102EA00071FA3220FDF740FD618941F2620003F0C2
:102EB00069FA3220FDF738FD012020746074BDE806
:102EC000FC5F04F0B3BB00000C0801402F7C00083D
:102ED0002E2E5C557365725C6273705C6273702E2B
:102EE0006300000032323A30313A313900000000DC
:102EF0004170722032332032303230000D0A257397
:102F00000D0A25730D0A25730D0A25732D2D2564D1
:102F10002E0A00000A0000009A250020040000206C
:102F20000AFC00084465617368696E675F54696DE7
:102F3000653A25233034580D0A000000504D325FA9
:102F4000355F666163746F723A25642C504D313081
:102F50005F666163746F723A25642C5453505F66E8
:102F60006163746F723A25640D0A000044656173F1
:102F700068696E675F506572696F643A25642C44B6
:102F800065617368696E675F54696D653A25640DA4
:102F90000A0000000A2558202C2025640D0A000094
:102FA0002A2A2A2A2A2A2A2A2A2A2A2A2A2A2A2A81
:102FB0002A2A2A2A2A2A2A2A2A2A2A2A2A2A2A2A71
:102FC0002A2A2A2A2A0D0A0010B512A086B007C89C
:102FD0008DE8070012A003AB07C883E80700684626
:102FE000FDF75AFE114C20B1012020700A21104833
:102FF00009E003A8FDF750FE002808D0002020704B
:103000000B480A211E3802F0A9FCFDF7BFFC06B0F0
:1030100010BD00005AA506831071010009000000D0
:103020005AA50683101301000A00000004000020C6
:10303000380000200D480078082815D2DFE800F09D
:103040000406080A0C0E1012FDF704BF04F040BA83
:10305000FFF76AB8FEF784BCFFF74ABCFEF7D4B8A6
:10306000FDF724BFFDF7CABF704700000400002031
:103070000A46002100F04EB80EB50B4900200B4A5D
:103080000860012002A9CDE90001830202F58061F8
:1030900007A000F011F8BDF80800A0F51C51103988
:1030A00001D0FDF74FFD0EBD80010020B42C0020A3
:1030B00048656170000000002DE9F84F1D46DDE90C
:1030C0000A6A174688468146FDF730F80446FDF740
:1030D000D7FC33463A4641464846009500F00CF886
:1030E000FDF7DEFC2046FDF725F842F21071AAF844
:1030F0000010BDE8F88F000000981044401EC1E9A0
:10310000002003488A600268C1E903230160704718
:103110008001002010B500234FEA0304641C41EA3B
:103120000323042CFAD310F0030405D10BE000BFF5
:10313000521E00F8011B641C002A0CD0042CF7D38B
:1031400001E008C0121F042AFBD202E000F8011BB4
:10315000521E002AFAD110BD10B50B4C40F2255179
:10316000204602F028FD00280DD0204602F0B0FDD8
:10317000074A064B11885854491C88B210804028D1
:1031800001D90020108010BD0038014048250020E2
:103190000000002070B50F23C47801780122F4B13B
:1031A000144C2468457804F4E064C4F5E064240A0F
:1031B000C4F10406E3408478B5401C402C4301F17F
:1031C000E021230181F80034007800F01F018A40DB
:1031D0004009800000F1E020C0F8002170BD01F03E
:1031E0001F0082404809800000F1E020C0F88021E3
:1031F00070BD00000CED00E0024908430249086080
:10320000704700000000FA050CED00E07047000078
:1032100002480068002800D0004770479401002051
:1032200010B5044600F09CF83B490020424A087063
:103230003A4908703A4908703A4908603A490860C2
:103240003A4908703A4908703A490870116831B132
:103250003A49096819B1126801C1521EFCD13849B6
:1032600008603849086038490860384908603849BA
:10327000086038490860384908603849087001F02A
:10328000D9F801F009F9204600F094FE20880028C2
:1032900041D1204600F0E8FE208800283BD120469E
:1032A00000F0EEFE2088002835D1204600F048FFCF
:1032B000208800282FD1204601F0E2F8208800283D
:1032C00029D1204601F072F92088002823D1204618
:1032D00001F07AFB208800281DD1204600F090FEE6
:1032E0002088002817D1204601F066FE208800289B
:1032F00011D1204601F088FA208800280BD1204601
:1033000001F0B4FE2088002805D100F051FEBDE890
:103310001040FFF77BBF10BDA8010020B0010020C6
:10332000D6010020380200203C020020CA01002003
:10333000CB010020CC010020547E0008507E000804
:10334000880100208C0100209001002094010020C1
:10335000980100209C010020A00100200202002012
:10336000054806490068096800EB8100044920F01F
:103370000700086070470000507E0008547E000877
:103380004002002005480078012805D1044908784A
:10339000FA2801D2401C087070470000B0010020DC
:1033A000A8010020184810B5007801282BD1FCF79F
:1033B000BDFE04461548017801B3491E11F0FF0116
:1033C00001701BD112480078C0B901F021F81149F1
:1033D0000870114900EB400051F820100F480160BF
:1033E0000F480068814209D051F88C0F401C0860DA
:1033F0000C480168491C0160FCF7CBFF2046BDE882
:103400001040FCF797BE10BDB0010020A8010020BD
:10341000D6010020CB010020F44000203C02002017
:1034200038020020F80100202DE9F04117460D4632
:103430000446FCF77BFE0646FDF722FB0D48C4E977
:10344000000500252562656284F8285004F1080013
:10345000E56200F00DFF204600F044FE06490888B2
:10346000401C0880FDF71CFB3046FCF763FE3D80E6
:10347000BDE8F0814D555458C80100202DE9F047B2
:1034800088B08946054600685149109E1C46904602
:10349000884202D045F6C45051E0002704B12760AD
:1034A000FCF744FE8246FDF7EBFA95F828104948F0
:1034B00099B16A6A03689A422CD1FF2922D0491C2B
:1034C00085F828100CB1E86A2060FDF7E9FA50464B
:1034D000FCF730FE45F2827031E00168696201213B
:1034E00085F828100CB1E96A21600068C16B296277
:1034F000C563FDF7D5FA5046FCF71CFE378008B0CF
:10350000BDE8F087FDF7CCFA5046FCF713FE45F214
:10351000847014E05FEA084107D5FDF7C1FA504610
:10352000FCF708FE46F2B01009E02B49097841B1DA
:10353000FDF7B6FA5046FCF7FDFD46F663503080C5
:10354000DDE792F837C093F8371080468C4502D9F2
:10355000104601F0CBF94B4604222946684600F09C
:10356000FBFDFDF79DFA5046FCF7E4FD00F0CEF8B8
:10357000FCF7DCFD0546FDF783FAD8F8000090F86B
:10358000351041B101290BD002291AD003290DD0E1
:1035900046F62E600EE00CB1806C206037800AE0A9
:1035A0000CB1806C206046F2A91003E004B12760E2
:1035B00047F2D9203080FDF773FA2846FCF7BAFDB0
:1035C0009DE70CB1806C206045F6C250F2E7000028
:1035D0004D55545838020020D60100202DE9FC5FDB
:1035E0008B460446006846491646884204D045F694
:1035F000C4501080BDE8FC9FFCF798FD0190FDF7DA
:103600003FFADFF80081606AD8F80010884207D0DE
:10361000FDF746FA0198FCF78DFD45F2817012E046
:10362000FDF7B0FA8146E06294F82800401E10F0E1
:10363000FF0084F8280008D0FDF732FA0198FCF763
:1036400079FD45F283703080D4E72146D8F8000038
:1036500000F06BFD208A04F108074FF0000AE8B380
:10366000D8F8000090F8371090F8382091421CD01C
:1036700000F04AFD0546D8F8000090F83810A9423D
:1036800000D20D4690F83710A9420ED200F064FF28
:10369000D8F8000080F83750284600F0D1FED8F85E
:1036A000000000F03FFF18480570386800231A46F4
:1036B00081680120616284F82800C86B2062CC63B5
:1036C0002046CDF8009000F035FEFDF7E9F90198AD
:1036D000FCF730FD5FEA0B4003D400E004E000F0AB
:1036E00015F8A6F800A085E7C4F824A0554684F88C
:1036F00028A0FDF7D5F90198FCF71CFD358079E786
:103700004D55545838020020CA010020174810B502
:103710000078002829D116480078002825D1FCF728
:1037200005FD044600F074FE12490870124900EBD2
:10373000400051F820001149086011490968884289
:1037400004D12046BDE81040FCF7F4BC50F88C1FB3
:10375000491C01600B480168491C0160FCF714FE1C
:103760002046FCF7E7FCBFF36F8F10BDA8010020D7
:10377000D6010020CB010020F44000203C020020B4
:1037800038020020F801002070B504460E48007889
:10379000012802D045F6896014E00C4D2878FA28FB
:1037A00002D345F209200DE0FCF7C0FC0646FDF708
:1037B00067F92878401C2870FDF772F93046FCF74D
:1037C000B9FC0020208070BDB0010020D60100208F
:1037D00070B5044614480078012802D045F6896087
:1037E00020E0124D287890B1FCF7A0FC0646FDF7CA
:1037F00047F92878401E10F0FF0028700AD0FDF726
:103800004FF93046FCF796FC46F663500AE046F660
:10381000645007E0FDF744F93046FCF78BFCFFF7F6
:1038200075FF0020208070BDB0010020D60100206F
:1038300070B50F4D0446287818B145F68A6020808F
:1038400070BD00F0E5FD0B4908700B4908700B498D
:1038500000EB400051F82000094908600949086060
:1038600001202870FCF752FD43F69920E7E700009D
:10387000B0010020CB010020CA010020F44000204C
:103880003C020020380200202DE9F0410646FCF7FA
:103890004DFC0446FDF7F4F828480025058028482B
:1038A00005602848056028480560284805602848C4
:1038B0000581FDF7F5F82046FCF73CFCFCF736FCEB
:1038C0000746FDF7DDF82348046816E0FCF72EFCF8
:1038D0000746FDF7D5F8C4F8B05044F8745F256387
:1038E000A561A582E5826562A562FDF74BF944F802
:1038F000200FA4F134008581646AFDF7D1F83846C1
:10390000FCF718FC002CE1D1FCF710FC0746FDF792
:10391000B7F81148046806E0FCF708FC0746FDF715
:10392000AFF8A585A469FDF7BBF83846FCF702FCA3
:10393000002CF1D13580BDE8F0810000E2010020CB
:10394000F40100200802002028020020AC01002021
:10395000E8400020FC010020D0010020F8B504461A
:103960006946244800F026FABDF8000058BB6A46B4
:103970000021022000F052FABDF8000018BBFCF74D
:10398000D5FB0746FDF77CF81B4E00253560FDF79B
:1039900087F83846FCF7CEFB184919480A680368CF
:1039A0009A4202D9B2FBF3F010B90A21B2FBF1F04E
:1039B0006A46002100F032FA69460E4800F0C2F86B
:1039C000BDF8000008B12080F8BDFCF7AFFB07464A
:1039D000FDF756F80B480C490560306808600B4944
:1039E00001200870FDF75CF83846FCF7A3FB258042
:1039F000F8BD000024440020E4010020787E000887
:103A0000647E0008F4010020E8010020F00100209D
:103A100002480068002800D0004770479801002045
:103A20002DE9FF4F83B09346DDE91085DDE9176A84
:103A3000139F0446B8F11F0F09D13B48844206D0BA
:103A400046F27321AAF8001007B0BDE8F08F2046B7
:103A500000F0CAFF4FF00009AAF80090F00709D063
:103A6000B00707D5284600214A4601E004C0491C9A
:103A7000B942FBD31298CDE9007605EB800082466F
:103A800003462A465846069900F05AF9C4F828B069
:103A90000699E1620499216284F8378084F83880BD
:103AA000C4F808A020601698276465626060A4F8D6
:103AB000446000204FEA090104EB8002401C91673A
:103AC00010F0FF00F8D004F16000149900F002FB40
:103AD000204600F02FF8FCF729FB0546FCF7D0FF45
:103AE00094F8370000F0ACFC204600F01BFD2046A7
:103AF00000F058FF0D490888401C08800C480078E9
:103B0000012807D0FCF7CCFF07B02846BDE8F04FEE
:103B1000FCF710BBFCF7C4FF2846FCF70BFB07B013
:103B2000BDE8F04FFFF7F2BD284000200002002062
:103B3000B001002002490968002900D008477047F9
:103B40008801002070B50D460646FCF7EFFA0446E2
:103B5000FCF796FFFCF7A4FF2046FCF7EBFA29469A
:103B60003046BDE8704000F0A1BF0000024909687E
:103B7000002900D008477047900100202DE9F04748
:103B80001E461400884681464FF0000700D027608B
:103B9000FCF7CCFA8246FCF773FF3D4D2968C86CF0
:103BA000D8B1401E8046C8640CB1886C2060FCF718
:103BB000E9FF29688A6C801AC1F8A000D1F8A42016
:103BC000824201D2C1F8A400FCF76AFF5046FCF71C
:103BD000B1FA37804046BDE8F0875FEA084007D574
:103BE000FCF75EFF5046FCF7A5FA46F2B01009E07C
:103BF0002848007848B1FCF753FF5046FCF79AFA82
:103C000046F6635030800020E5E700214B4607224E
:103C1000084600F0A1FAFCF743FF5046FCF78AFA89
:103C2000FFF774FDFCF782FA8046FCF729FF28684D
:103C300090F8351031B1012916D003291AD046F673
:103C40002E601BE074B1806C2060FCF79BFF29683C
:103C50008A6C801AC1F8A000D1F8A420824201D257
:103C6000C1F8A40037800AE00CB1806C206046F2F5
:103C7000A91003E004B1276047F2D92030802868FA
:103C8000C46CFCF70DFF4046FCF754FA2046A2E74F
:103C900038020020D601002070B514460D460646B5
:103CA000FCF770FF0246234629463046BDE87040C7
:103CB00000F068BF2DE9F0471D4616460F46044642
:103CC000FCF734FA8146FCF7DBFE0CB91B480468AC
:103CD0004FF00008206858B194F84400C00713D092
:103CE000FCF7DEFE4846FCF725FA0020616A1BE07F
:103CF000FCF7D6FE4846FCF71DFAC7F8008047F2ED
:103D00005210C6F800800AE0FCF7CAFE4846FCF7ED
:103D100011FAC7F8008047F25410C6F800802880D6
:103D2000BDE8F087401C091D0A68002AFAD03860F7
:103D3000216C081A3060A5F80080F1E738020020F5
:103D400010B5029C02EB840222F007024FF080744F
:103D500042E90204164842F80C0C4FF0123042F8C7
:103D6000100CA2F114004FF0023240E903134FF09F
:103D7000113140F8101CD10040F8141C4FF00931EB
:103D800040F8181C910040F81C1C4FF007314FF010
:103D9000033440F8201C610040F8241C4FF005312A
:103DA00040F8281D5100C0E9092440F8041D10BD49
:103DB000654B0008044A904203D147F25B1008802B
:103DC000704700F035BF00002840002070B5104853
:103DD000006800B18047FCF7D5FE0E4C0E4A216802
:103DE0001268914207D0D1F89430C31A41F8903F3D
:103DF0008D682B448B60C2F89400FCF723FE216889
:103E0000D1F8B020824201D2C1F8B00070BD0000EC
:103E10009C010020380200203C0200202DE9F041E6
:103E200006461D480D461446007810B146F663500C
:103E300021E045B1022D06D0042D05D0082D02D079
:103E400045F6256017E0A6B1FCF770F90746FCF7C8
:103E500017FE2A46114D23463146286800F06CFFB4
:103E6000208858B1FCF71CFE3846BDE8F041FCF74D
:103E700061B947F27E201080BDE8F081286800F02B
:103E80006BFBFCF70DFE3846FCF754F9FFF73EFCE0
:103E900000202080F0E70000D6010020380200203A
:103EA0002DE9F0412C4D1E46DDE906342D7815B183
:103EB00046F6635049E013F00E0547F27E2708D01E
:103EC000022D06D0042D08D0082D02D045F625601D
:103ED0003BE016B90AB901B9D0B3204B4FF4FA7CD4
:103EE000C1EB01111B68BCFBF3FC66445E434FF45D
:103EF0007A7CB6FBFCF64FF4616C00FB0CF000EB37
:103F00008100104400FB036616B3FCF70FF9074667
:103F1000FCF7B6FD2A46124D23463146286800F0CC
:103F20000BFF208830B1FCF7BBFD3846BDE8F041FF
:103F3000FCF700B9286800F00FFBFCF7B1FD38462C
:103F4000FCF7F8F8FFF7E2FB00202080BDE8F081E5
:103F5000FFE72780FAE70000D6010020787E0008FE
:103F60003802002008B500F01BF86A460021084816
:103F7000FFF792FE07490868401E086007D106480F
:103F80006A460068086000210448FFF785FE08BD06
:103F9000344300203402002030020020244400205A
:103FA00002480068002800D000477047A0010020A8
:103FB00070470000034A00211160034A118001800C
:103FC00070470000B4010020B80100200A4C0B4DDE
:103FD000FCF7ACF80646FCF753FD2068401C206057
:103FE0002868401C2860FCF75BFD3046FCF7A2F80F
:103FF000FFF70EF9ECE70000A4010020E401002027
:1040000000B50E4A89B0002111600B22059106917E
:10401000CDE907200A480B4A0B4B006812681B6861
:104020000292CDE903011F20CDE900030023074AD6
:1040300007A10C48FFF7F4FC09B000BDA401002063
:104040004C7E0008487E0008447E0008CD3F0008F2
:1040500075432F4F532D4949492049646C652054BD
:1040600061736B0028400020034A00211160034A5D
:104070001180018070470000BC010020C0010020B9
:10408000F0B5124E104D31882A68491E8FB20024B7
:1040900002F11003214608E0E2E80231641C22F834
:1040A000081BA4B242F8041C1033BC42F4D31160C4
:1040B00051601181D160064A2B6813603388938068
:1040C000D18011810180F0BD5C7E0008587E00081F
:1040D000E84000200181002141818181016041602F
:1040E000704700000022074B05A14261C1611968B9
:1040F00019B181614861186070478261FBE7000077
:1041000020000000C40100201F213C3008E082682C
:104110002AB1926892F837208A4200D211462030A4
:1041200000680028F3D1084670473C3001E002F1F6
:10413000200002688A42FAD1116A016070470000CB
:10414000034A00211160034A11800180704700007A
:10415000C4010020C80100202DE9F041114D07469F
:104160000C4628680026194680F8342080F835600F
:1041700000F0A8FB64B1FC6004F108060122394696
:10418000286800F011F83946304600F076F803E070
:104190002868A0F84660066320462968BDE8F0411B
:1041A00000F01CB83802002010B5A0F8462000240A
:1041B000234601630EE04B6041F8103B641C41F85C
:1041C000103BA4B241F80C3C21F8083C41F8043CF7
:1041D00041F8180C9442EED310BD000038B142688B
:1041E000C1F8BC2081688968096AC161704791F88B
:1041F0003400022803D0072803D004A002E004A062
:1042000000E005A0C1F8BC007047000020000000DD
:104210005461736B205100005461736B2053656DC2
:104220000000000005A2C1F8BC20816811B18968B6
:10423000096A00E001A1C161704700002000000090
:1042400070B5B0F84640056B0FE0EE68308A08366E
:10425000012807D92946304600F051F82946304652
:1042600000F00BF8641EA4B22035002CEDD170BD17
:104270000021016041600181704730B58A680023E8
:1042800092F8374002891AB1521C028102680BE091
:10429000012202814B600B60016014E0956895F883
:1042A0003750A54203D85268002AF7D107E032B14F
:1042B000146854B1C1E900426160116030BD4B60C7
:1042C00042680A605160416030BD1160C1E900324E
:1042D000016030BD70B50646B0F84640056B07E09A
:1042E000E8682946083000F00AF8641EA4B22035B8
:1042F000002CF5D10020A6F84600306370BD10B543
:1043000002890023012A0BD00A6862B14C6874B19B
:10431000546022600289521E02814B600B6010BD06
:1043200003604360F6E74A6813600260F2E7536097
:104330004260EFE7F8B50C46064691F836100025C6
:10434000069808294ED2DFE801F04D4D04044D4D8A
:10435000282894F83410032910D0A265A4F85C3002
:10436000A06436B12046FFF7B5FF21463046FFF77F
:1043700059FF94F83600032806D008E00090214643
:10438000304600F030F8ECE7204600F013FD204600
:1043900000F094F884F8365020E094F834100329A3
:1043A00010D0A265A4F85C30A06436B12046FFF7B7
:1043B00091FF21463046FFF735FF94F83600072875
:1043C00006D008E000902146304600F00CF8ECE7FB
:1043D000204600F0EFFC042084F8360084F83550C5
:1043E00084F83450F8BD70B50C6B049DB1F84610DC
:1043F0000AE0E668864204D1C4E904022383E56149
:1044000070BD491E89B220340029F2D170BD000070
:1044100010B50024064802E02034E4B2001D016813
:104420000029F9D00846FBF78CFE2044C0B210BD2D
:1044300084010020014900200860704784010020A9
:1044400000F01F0241090120C2F11F029040034AFF
:1044500052F82130034342F8213070478401002094
:1044600000F01F0241090120C2F11F029040034ADF
:1044700052F82130834342F82130704784010020F4
:10448000034A00211160034A118001807047000037
:10449000D0010020D40100200020074B014600BFBE
:1044A00000EB400203EB8202401C11811160C0B29C
:1044B00051602028F4D37047F440002010B5044622
:1044C00090F83700FFF7BCFF074994F837000978E8
:1044D0008842204603D1BDE8104000F023B8BDE873
:1044E000104000F003B80000CA01002090F8371017
:1044F0000B4A01EB410102EB810100220B8943B120
:104500005B1C0B810B68C0E903320A68106108600C
:10451000704701230B81C2600261086048607047E8
:10452000F440002090F837100A4A01EB410102EBF9
:10453000810100220B893BB15B1C0B81C2604A6880
:104540000261D0604860704701230B81C260026144
:104550000860F7E7F440002070B5054690F8370092
:10456000114900EB400001EB8001D5E90302002472
:1045700042B10B895B1E0B81D06090B102612C614E
:10458000EC6070BD28B10A89521E0A81046108607E
:10459000F5E70C810C604C6095F83700FFF760FF81
:1045A000EDE74A60EBE70000F4400020034A0021F9
:1045B0001160034A1180018070470000D80100207B
:1045C000DC0100200EB5804C804E2068450004E0E0
:1045D00028466A460021FFF721FC30780128F7D1F0
:1045E0006846FFF751F97A4822680168914206D976
:1045F0000A462168B2FBF1F15FEA010803D10068C5
:104600000A21B0FBF1F8DFF8CCB1734F42F2107A17
:104610005FF00006FCF7B6FA0190FCF723FA6F4949
:104620000860FBF783FD0546FCF72AFA6C486D4CE1
:10463000016821600660FCF733FA2846FBF77AFD33
:104640006948236802689A422BD96848824202D29C
:104650005046012115E06648824203D24FF47A7039
:104660000A210EE06348824202D26420014608E03B
:104670006148824203D20A204FF47A7101E001209E
:104680005146B2FBF1F15843B0FBF1F1AAEB010046
:104690005A4980B2ABF800000A88824203D20880EF
:1046A00001E0ABF80060FFF7B3F90024FBF73EFD33
:1046B0008146FCF7E5F93D6816E000BFFBF736FDE3
:1046C0008146FCF7DDF955F8980FC5E90060FCF765
:1046D000E7F94846FBF72EFD68680444FBF726FD22
:1046E0008146FCF7CDF92D6AFCF7DAF94846FBF76D
:1046F00021FD002DE2D12CB33C48844202D2554624
:10470000012015E03A48844203D24FF47A750A201A
:104710000EE03848844202D26425284608E0364834
:10472000844203D20A254FF47A7001E001255046F5
:10473000B4FBF0F08146FBF7F9FC0290FCF7A0F91E
:104740003C6822E000250120F4E700BFD4F89C007B
:104750006843B0FBF9F080B2504500D95046A4F848
:104760008800B4F88A10814201D2A4F88A0004F1CA
:10477000A8026B46111D2046FFF79CFAFBF7D6FCFA
:104780000290FCF77DF9D4F8B840FCF789F902985B
:10479000FBF7D0FC002CD9D119480178012903D1AD
:1047A00006706846FFF770F8FCF7ECF90199401ABB
:1047B00014490A68824200D208606A4600214046D5
:1047C000FFF72CFB26E70000647E0008F0010020C4
:1047D000787E0008E0010020FC010020AC010020F0
:1047E000E4010020EC010020E8010020801A06000E
:1047F00000093D00005A62020084D717E201002040
:10480000DE010020F401002030B51D4A89B00021EE
:1048100011601C4A11601C4A11601C4A11701C4A2C
:1048200011701C4A136843B11B4B1C4D1C682D684A
:10483000AC4205D246F62C6108E046F62B6105E055
:10484000174C25781F2D04D346F62A61018009B044
:1048500030BD032505910691CDE9075011481B682D
:1048600012680068CDE90120CDE90331207800907D
:1048700000230D4A0DA11248FFF7D2F8E7E7000028
:10488000E4010020EC010020E8010020F0010020FC
:10489000DE010020687E0008707E0008747E00083B
:1048A000607E00086C7E0008C545000875432F4FE8
:1048B000532D4949492053746174205461736B002E
:1048C0007442002010B5044631B10A46014606483C
:1048D00000F002FA032000E0022084F836002046AF
:1048E000BDE81040FFF738BE1402002070B50C463A
:1048F0004FEA000595F8360095F8376008281CD275
:10490000DFE800F004191C1C19191C1C2846FFF7CD
:1049100023FE85F837402046FFF792FD20480068C7
:104920008542284603D1BDE87040FFF7DFBDBDE8F2
:104930007040FFF7F7BD85F8374070BD85F8374008
:1049400095F834000728F8D2DFE800F004050405E4
:104950000A050500F1E72846BDE87040FFF770BC86
:104960002846FFF76DFC286BA642C068456A95F89B
:10497000370002D9A042E0D90EE0B0420CD128465F
:10498000FFF7C2FB044695F83800A04200D2044667
:1049900095F83700A042D0D0002DABD170BD0000FB
:1049A00038020020074B0022C0F8B420196829B152
:1049B000C0F8B810C1F8B40018607047C0F8B8204B
:1049C000FAE70000FC010020044A00211160044ABB
:1049D0001180044A1160018070470000FC01002032
:1049E00000020020F801002070B5002505608560F8
:1049F0004560C560056145610446856128A0C4E93C
:104A000007506562A562E5622563A4F84650A56477
:104A1000A565A4F85C50002104F16000FFF75AFB83
:104A200025676567E567A4F884500020C4F88050C6
:104A300004EB8001401C8D6710F0FF00F8D0E564A6
:104A4000C4F8A050C4F8A450256484F88650C4F873
:104A5000AC50C4F8A850A4F8445025656565A4F886
:104A60008850A4F88A50C4F88C50C4F8905034345C
:104A7000FCF788F8C4E91805E56704F8015B202015
:104A800004F8015B04F8025B04F8010C04F8040B61
:104A900005A044F8785B20C4C4E9005070BD000054
:104AA0003F5461736B0000002000000070B50D469C
:104AB0000446FBF73BFB0646FBF7E2FF002028809D
:104AC00094F83610082944D2DFE801F00404040405
:104AD0000D232D37FBF7E4FF3046FBF72BFB47F2A6
:104AE0005310288011E094F88610491E11F0FF0140
:104AF00084F8861004D184F836002046FFF7DEFCE7
:104B0000FBF7CEFF3046FBF715FBBDE87040FEF724
:104B1000FDBD94F88600401E10F0FF0084F886006A
:104B2000EED1012012E094F88600401E10F0FF0044
:104B300084F88600E4D1022008E094F88600401E44
:104B400010F0FF0084F88600DAD1032084F83600E4
:104B5000D6E7FBF7A5FF3046FBF7ECFA46F62D60EB
:104B6000288070BD054808B50068FEF7FFFF044CBB
:104B70006A4600212068FFF751F9F9E73802002062
:104B8000787E00082DE9F8431E46144688460546FF
:104B9000FBF7CCFA8146FBF773FF0DB92348056894
:104BA000002046F6C557AC64308095F836000828DA
:104BB00030D2DFE800F004040F0F04040F0FEC6C98
:104BC000601C1ED0641CEC64FBF76AFF4846FBF7D0
:104BD000B1FA28E095F834000728F0D100231A46EE
:104BE000294618460094FFF7A5FBEC6CFBF758FF2D
:104BF0004846FBF79FFA5FEA084014D4FEF786FDAB
:104C000011E0FBF74DFF4846FBF794FA3780002090
:104C1000BDE8F883FBF744FF4846FBF78BFA46F6FE
:104C20002D60308000242046F2E70000380200208A
:104C300070B50D460446FBF779FA0646FBF720FFF0
:104C4000234804B90468006884420AD121480078E6
:104C500038B1FBF725FF3046FBF76CFA46F6635098
:104C600034E00020288094F836100120082926D24C
:104C7000DFE801F0040D181A20202020042184F818
:104C8000361084F886002046FFF766FC01E0052117
:104C90000BE0FBF705FF3046FBF74CFABDE8704030
:104CA000FEF734BD062100E0072184F8361084F8B1
:104CB0008600EEE714F8860F401C2070E9E7FBF74A
:104CC000EFFE3046FBF736FA46F62D60288070BDC1
:104CD00038020020D601002030B50368002433B923
:104CE0004C610A65C1E90640016001210FE01D6DBC
:104CF000954216D39D694B610A6555B1C1E90650CD
:104D00001C6DA21A1A65996169618188491C8180AC
:104D100030BDC1E906401C6DA21A1A659961016097
:104D2000F3E7521B1D465B69002BE0D14C610A651D
:104D3000C1E90650E8E70000F0B51C461B4BDFF860
:104D400068C000251B6847F27E26042A04D0082A82
:104D500008D029B10A4614E0CA1A624500D882B9BF
:104D600005651EE0D0F854E0A3EB0E078F4202D990
:104D70000A46991804E0CA1B62450BD852B1714427
:104D80004165012180F8361001460948FFF7A4FF6C
:104D90002580F0BDB7FBF1F201FB02E21144C0E94E
:104DA00014512680F0BD00000000FFFF0402002027
:104DB0000C02002030B5D0E90524C369002174B18C
:104DC000626122B19461146D056D2C44146581619A
:104DD0009A88521E9A8041610165C16130BD32B12D
:104DE0009161146D056D2C4414651A60F0E719602B
:104DF0009980F1E72DE9F047FBF798F98246FBF738
:104E00003FFEFBF7BFFE1B4D074600262C6814B380
:104E1000206DB046401E4FF00409206518E0761C56
:104E200094F83600B6B2012802D0052806D007E073
:104E300084F836802046FFF741FB01E084F8369085
:104E400064692C609CB1A888401EA880C4F81880B2
:104E5000206D0028E3D0EE80FBF794FEC41BFBF727
:104E60001FFE5046FBF766F92046BDE8F087A5F81F
:104E70000480F0E70C0200202DE9F047FBF756F91B
:104E80008246FBF7FDFDFBF77DFE354E8046002791
:104E90003468E4B3206DB946401E20654DE07F1CA8
:104EA00094F834000025BFB2042802D1206BC068FA
:104EB000456AC4F85890A4F85C90FBF763FEA064C0
:104EC0002046FFF707FA94F83600032802D0072897
:104ED00006D008E02046FFF7F1FA84F8369002E0A9
:104EE000042084F83600032084F8350084F83490D8
:104EF000DDB195F8370095F83810884215D094F850
:104F00003710884211D12846FFF7FEF800E017E07D
:104F100095F83810814200D2084695F83710814242
:104F200003D001462846FFF7E1FC64693460A4B170
:104F3000B088401EB080C4F81890206D0028AED014
:104F4000F780FBF71FFEA0EB0804FBF7A9FD504616
:104F5000FBF7F0F82046BDE8F087A6F80490EFE7ED
:104F60001402002008B5124C124D00226B46114667
:104F70001046FEF703FEBDF800000028F5D1FBF750
:104F8000D5F80646FBF77CFD2068401C2060FBF747
:104F900087FD3046FBF7CEF8FFF72CFF0646FFF7FC
:104FA0006BFF296830448142DFD22860DDE70000D2
:104FB000040200200802002030B51D4A89B00021FB
:104FC00011601C4A1C4B116019609180D1801B4AF2
:104FD0009980D980136843B1194B1A4D1C682D680C
:104FE000AC4205D247F2132108E047F2122105E056
:104FF000154C25781F2D04D347F21121018009B0EB
:1050000030BD0B2505910691CDE9075018680F4B6F
:1050100012681B68CDE90301CDE9012320780090D7
:1050200000230B4A0BA11048FEF7FAFCE7E700004B
:10503000040200200C02002014020020807E0008E0
:10504000887E0008747E00087C7E0008847E00084C
:10505000654F000875432F4F532D49494920546926
:10506000636B205461736B003443002030B50546F8
:10507000294889B00024046028482A492A4A046043
:105080002748048029480B681BB11268B2FBF3F172
:1050900003E011680A22B1FBF2F1016008462449DD
:1050A0002A460860234825A1046023480460274855
:1050B000FEF7BAF92888002815D12548016841B1C2
:1050C0002449254B0A681B689A4205D247F24830AA
:1050D00008E047F2473005E0204A13781F2B04D33D
:1050E00047F24630288009B030BD0B23CDE9064396
:1050F0001B4B089505941B6809680068CDE90103FE
:10510000CDE90314107800900023164A16A11C481C
:10511000FEF786FCE7E700001C02002024020020C6
:1051200020020020907E0008787E000830020020D7
:10513000340200202C020020280200204F5320546B
:105140006D72204D7574657800000000F4430020F6
:10515000947E00089C7E0008747E00088C7E000807
:10516000987E00089D51000875432F4F532D4949E3
:10517000492054696D6572205461736B0000000012
:10518000244400200EB501A80022009002AB114675
:105190000148FEF773F90EBDF44300201CB5DFF89B
:1051A0008880DFF88890DFF888A000216B4601AA8C
:1051B0000846FEF7E3FCFFF7E5FFFBF7E3FCD8F852
:1051C00000100646491CC8F800100327D9F8004013
:1051D00018E06846FEF7D8FAA0692569401EA0616C
:1051E0000CD1A08C02281BD0204600F023F884F8B4
:1051F0002670A26812B12046E16890472C466846A6
:10520000FEF7E6FA002CE4D1FBF7BCFCDAF800204C
:10521000811B8A4201D2CAF8001000F029F8C4E7C5
:10522000206AA061E5E700002C0200202402002093
:10523000280200200C4B10B51C6800220169844232
:1052400003D1196029B14A6103E04369196101B1D1
:105250004B61012180F826100449026142610888EF
:10526000401E088010BD0000240200202002002003
:1052700008B56A4600210248FEF7B0F908BD0000F3
:10528000F44300201FB50EA0D0E90010CDE90010B6
:105290000DA1D1E90001CDE902016846FAF7D1FF7D
:1052A0000146684600F01CFD4FF4C870FBF73CFB5C
:1052B00002A8FBF7E5FC002801D0FBF759FB1FBD56
:1052C00011030C021EC0000016020C02DA000000DE
:1052D0003EB526A1D1E90001CDE9000125A0006875
:1052E0000290FFF7CFFFFBF743FB6846FAF7A9FFF1
:1052F0000146684600F0F4FC4FF4FA70FBF714FB2B
:1053000002A8FBF7BDFC00282FD01B491A4C31F82E
:10531000090F8E3440BAA3798A8858430A23B0FB18
:10532000F3F009892080E07952BA4243B2FBF3F0EE
:105330006080207A49BA4143B1FBF3F0A08000F0CD
:1053400085FF00F035FF00F0CFFFA4F14E0021886B
:105350000170090A417061888170090AC170A188D1
:105360000171090A4171FBF703FB3EBD11020B07F6
:10537000DB00000016350B00482500207FB51D4DD1
:105380000021284600F030FA0021284600F096FA65
:105390000121C80200F03CF840F21F30ADF80400D3
:1053A00041F61F40ADF800000024ADF80240ADF812
:1053B00006406946284600F083FA0121284600F09D
:1053C00010FA01221146284600F024FA012128464D
:1053D00000F00AFA19208DF80C0002208DF80D005B
:1053E0008DF80E4001208DF80F0003A8FDF7D2FEC6
:1053F0007FBD0000002C0140044A0029D16901D082
:10540000014300E08143D161704700000010024079
:10541000044A0029916901D0014300E08143916170
:10542000704700000010024030B51F494A6812F072
:105430000C031E4A03D0042B01D0082B21D002609C
:105440004A680F231A4C03EA1212A35C0268DA407E
:1054500042604B68072505EA1323E35C22FA03F355
:1054600083604B6805EAD323E35CDA40C260496895
:10547000032303EA9131231F595CB2FBF1F101616F
:1054800030BD4A684B6802F470124FF0020413F406
:10549000803F04EB924202D04B689B0301D5054B41
:1054A00000E0024B5A43CAE70010024000127A00A3
:1054B0006E00002000093D0010B5002306E000BF8B
:1054C00030F8024B21F813405B1C9BB29342F7D398
:1054D00010BD00002DE9F05FA0F1006415468A467A
:1054E0008346B4F5803F52D2FBF7ACFBA70AC4F366
:1054F0004806C6F50074A54200D82C46DFF8949003
:105500004FF0006000EB872080464FF40072214985
:10551000FFF7D2FF00204FF6FF7106E0331839F88D
:1055200013208A4203D1401C80B2A042F6D3A0428D
:1055300025D24046FBF732FB0020494607E000BF7A
:105540003AF810208319401C21F8132080B2A042A1
:10555000F6D3104940464FF4007200BF00F01CF82B
:10556000A54210D0281B0AEB440AA344002685B2AA
:105570004FF400747F1CA542C2D82C46C0E72246D7
:1055800051465846EAE7BDE8F05FFBF739BBBDE896
:10559000F09F0000702700202DE9F04116460F46CD
:1055A0000546002408E000BF37F814102846FBF732
:1055B0002FFB641CA4B2AD1CB442F5D3BDE8F0814E
:1055C0000CB50021264801910091026842F4803216
:1055D00002604FF4A063026802F400320092019A64
:1055E000521C0192009A12B9019A9A42F3D10268B0
:1055F000920333D5012100911A490A6842F0100242
:105600000A600A6822F003020A600A6842F0020295
:105610000A604168416041684160416841F48061CD
:105620004160416821F47C114160416841F4E81116
:105630004160016841F08071016001688901FCD519
:10564000416821F003014160416841F0020141607D
:105650004168C1F381010229FAD10CBD00910CBD52
:10566000001002400020024030B5002812D091B155
:105670000346002406E000BF491C03F8015B641CDC
:105680004BB141B10D780DB19442F5D3944201D2A2
:105690000021197030BD002030BD002201E0401C07
:1056A000521C18B103780BB18A42F8D310467047E8
:1056B00010B5FAF73BFD0446FBF7E2F90749087815
:1056C000401C0870FBF7ECF92046FAF733FDFEF7B3
:1056D00049FCBDE81040FDF765BE0000A8010020B0
:1056E0000F4810B5016841F00101016041680D4AA1
:1056F0001140416001680C4A11400160016821F4C9
:1057000080210160416821F4FE0141604FF41F01D6
:105710008160FFF755FF05494FF00060086010BD3C
:10572000001002400000FFF8FFFFF6FE08ED00E069
:1057300070B5164D0121284600F060F8002823D0EE
:10574000134C2088401C2080FBF720F92088002281
:105750001049062807D1104B2280187C401C187471
:105760000888401C088008883C2807D10A8048889F
:10577000401C80B24880182800D14A802846BDE8E5
:105780007040012100F02DB870BD0000002C0140D8
:105790009400002008000020D625002010B5084CF9
:1057A0000121204600F02AF8002808D001212046D7
:1057B00000F017F803480068BDE81040004710BD2E
:1057C00000080040C00000200029018802D041F0FC
:1057D000800101E021F0800101807047C94301820E
:1057E0007047C943018270470029018802D041F007
:1057F000010101E021F00101018070470246002013
:10580000138A92890B4202EA010202D0002A00D0D8
:1058100001207047002A828901D00A4300E08A43B0
:105820008281704770B5028C22F010020284028CD3
:105830008488038B0D8823F4E6464FF6FF7303EA52
:10584000052535430E8922F0200203EA0616164389
:105850004A8803EA02123243104EB04202D0104E80
:10586000B04215D122F080064A8924F4406403EA4C
:105870000212324322F040068A8803EA02123243BF
:105880008E8903EA86062643CC8903EA84043443DE
:1058900084800583C9880187028470BD002C014083
:1058A00000340140028B4FF6FF7322F4006203EADA
:1058B000012111430183704701877047818470473C
:1058C00030B502881B4B1C4C98420DD0A0420BD027
:1058D000B0F1804F08D0194DA84205D0184DA8420C
:1058E00002D0184DA84203D122F070054A882A43FD
:1058F000154DA84206D0154DA84203D022F440759C
:10590000CA882A4302808A8882850A88028598424A
:105910000AD0A04208D00E4A904205D00D4A9042CB
:1059200002D00D4A904201D1097A0186012181827B
:1059300030BD0000002C0140003401400004004054
:1059400000080040000C004000100040001400401F
:1059500000400140004401400048014070B50E463F
:105960000446084D0BE000BF14F8011B284600F068
:10597000B3F98021284600F017F90028F9D0761EE7
:10598000F2D270BD0048004010B5FAF7CFFB0446D4
:10599000FBF776F8FDF7F6FCFBF782F82046FAF7FE
:1059A000C9FBFDF7D9FBBDE81040FDF7FBBC0000CB
:1059B00070B50E4C40F225552946204600F0FBF804
:1059C00008B10B4808E040F226652946204600F061
:1059D000F2F8002808D0074800688047294620468A
:1059E000BDE8704000F029B870BD000000440040E0
:1059F000B8000020BC00002010B50B4C40F225512F
:105A0000204600F0D8F800280DD0204600F060F9BC
:105A1000074A064B11885854491C88B21080402808
:105A200001D90020108010BD00480040E82500206A
:105A30000C000020C943018070470A0A01219140EF
:105A4000C943018070470029818902D041F4005187
:105A500001E021F4005181817047000010B586B04B
:105A600001210520FFF7D4FC01218803FFF7D0FCBA
:105A70004FF48060ADF810000420234C8DF8130023
:105A800004A92046FBF768F96015ADF81000032063
:105A90008DF8120018208DF8130004A92046FBF79A
:105AA0005BF94FF4165000900020ADF80400ADF8FB
:105AB0000600ADF80800ADF80C000C20134CADF852
:105AC0000A006946204600F0ADF8012240F2255157
:105AD000204600F08FF801212046FFF7B4FF402157
